00782DATAINFO INC      18 FIRST ST.    SAN DIEGO     CA921013229002021525000324000005340000000525003A
09316THINK INC         255 MAIN ST.    PHOENIX       AZ850268008009000062500000000000000000000062500B
12963ALGORITHMS LTD    38416 A ST.     ANAHEIM       CA928038345201000000000001557500015575000004250F
13526ALPHA RESEARCH    67 THIRD AVE.   SAN FRANCISCO CA941018040108000029990013486300002999000000002C
13528INPUT CORP        5 INDUSTRIAL WAYPHOENIX       AZ850267008009004990000000000000000000000000003D
14632COMP DISTRIBUTING 681 SOUTH ST.   EUGENE        OR974015370704008000000020000000000000000000001C
15820NORTHERN RESEARCH 45 LAKE AVE.    TACOMA        WA984028211406013500000135000000000000000000001B
16915OUTPUT OUTLET     250 JEFFERSON AVPORTLAND      OR972085190005000995000000000000010000000000002E
17222TOTAL CONCEPTS    45 FOREST RD.   ANAHEIM       CA928032120501000000000001499500010000000019950F
19200COST PLUS COMPUTER421 WINTER AVE. LOS ANGELES   CA900525372712000575500003827500057550000000002E
19815INFOCORP          500 BROADWAY    EUGENE        OR974013370704000750000001255000087000000005500D
20356COMPUSHOP         2850 HIGH ST.   SAN FRANCISCO CA941011340008000642500000000000050050000041000F
24813STATE UNIVERSITY  100 WEST AVE.   SAN FRANCISCO CA941016040108000000000001000000010000000000003A
32518HAL INC           92 BAY ST.      SAN FRANCISCO CA941017340008332560001021350014000000102000002A
32529XYZ CORP          731 FALL BLVD.  SAN DIEGO     CA921019391702006225950000000000622595000000001B
32560COUNTY COLLEGE    600 FIFTH ST.   RENO          NV895016142010000000000000000000000000000000003B
38412BETA TEST CO      40111 LINCOLN   RENO          NV895018137510005000000000000000550000000000002C
40125CED CORP          55 NORTH BLVD.  RENO          NV895017137510007500000006250000000000000750002B
41509SUSAN THOMPSON    17 WOODS AVE.   SEATTLE       WA981014233707000600000000000000050000000042002E
48359SMALL BUS COMP INC2500 SECOND AVE.RENO          NV895012144210004995000018250000079500000000003D
49700FIRST SYSTEMS     1 WATER ST.     ANAHEIM       CA928031333901000000000075000000000000000000003C
52613IO STORE          56 WASHINGTON STRENO          NV895011137510000823940000000000050000000000002D
56003MEDICAL SYSTEMS CO69 SPRING ST.   LOS ANGELES   CA900522537512000000000012500000200000000057501B
56219UNIVERSITY ASSOC  2843 SOUTH PL.  SACRAMENTO    CA958133169803004200000003500000250000000000003C
56247NEW TECH CORP     970 RIVER WAY   SEATTLE       WA981017113307006143880017528300450000000000002C
64827CITY HIGH SCHOOL  8130 AUTUMN PL. SAN FRANCISCO CA941016040108000000000000077500000000000007752B
66115HOUSEHOLD COMP    10 EAST PLAZA   PORTLAND      OR972081190005001000000002500000025000000000003E
68208TRAVEL UNLIMITED  4813 FOURTH ST. LOS ANGELES   CA900529537512022525000047500000550000000000003B
69035WESTERN CAMPUS    1631 SUMMER AVE.SEATTLE       WA981016113307115000000000000001000000000000002A
71421JOHN SMITH        3 EAST ST.      PHOENIX       AZ850264008009000013490000124300001532000000962D
71422MARY JONES        100 OCEAN ST.   LOS ANGELES   CA900524184212000000000000000000000000000000003D
71423ALFREDS           2734 WEST BLVD. SEATTLE       WA981019400307088300000081250005000000000000001A
71424NANCY LEE         485 23RD ST.    LOS ANGELES   CA900524184212000755900000000000075590000000003E
